:020000040800F2
:1000000000000220D1B80008A1080008A5080008D7
:10001000A9080008AD080008B108000800000000A9
:10002000000000000000000000000000B50800080B
:10003000B908000800000000BD080008C108000859
:1000400019B9000819B9000819B9000819B9000848
:1000500019B9000819B90008450A0008E90800089C
:1000600019B9000819B9000819B90008C111000828
:1000700019B9000819B9000819B9000819B9000818
:1000800019B9000819B9000819B9000819B9000808
:1000900019B9000819B9000819B9000819B90008F8
:1000A00019B9000819B9000819B9000819B90008E8
:1000B000990A000819B900083909000819B9000897
:1000C00019B9000819B9000819B9000819B90008C8
:1000D0000504000819B9000819B9000819B9000881
:1000E00019B9000819B9000819B9000819B90008A8
:1000F00019B9000819B9000819B90008BD1100089C
:1001000019B9000819B9000819B90008C511000883
:1001100019B9000819B9000819B9000819B9000877
:1001200019B9000819B9000819B9000819B9000867
:1001300019B9000819B9000819B9000819B9000857
:1001400019B9000819B9000819B900089D0A000872
:1001500019B9000819B9000819B9000819B9000837
:1001600019B9000819B9000819B9000819B9000827
:1001700019B9000819B9000819B9000819B9000817
:0801800019B9000819B90008C3
:1001880008B540F2F430074BC2F200001B1A062BE8
:1001980000D808BD40F20003C0F20003002BF8D0DD
:1001A8009847F6E7F703002008B540F2F43040F22C
:1001B800F433C2F20000C2F200031B1A9B1003EBD7
:1001C800D373591000D108BD40F20002C0F20002FA
:1001D800002AF8D09047F6E710B540F2F434C2F29E
:1001E8000004237873B9FFF7CBFF40F20003C0F295
:1001F80000032BB14CF24870C0F60000AFF300804A
:100208000123237010BD00BF08B540F20003C0F2FF
:1002180000034BB14CF2487040F2F831C0F60000D0
:10022800C2F20001AFF3008040F2F030C2F20000E9
:1002380003682BB140F20003C0F2000303B19847F2
:10024800BDE80840B0E700BF2DE9F04F40F2144484
:10025800C2F2000485B0256889469046002D40F01A
:1002680095804FF46050C4F2020042F24463026B7E
:10027800C2F2000342F480520027002101260263E3
:10028800C4F220114FF47A521846C4F2FA571A8071
:100298005F609960DE819E810BF03EFB314606204F
:1002A80002F0FEFF4FF4806A3146062002F0F8FFA4
:1002B80004AF504602236946C4F202008DF80430A8
:1002C8008DF8053047F810AD8DF806508DF80750B9
:1002D80003F018FA50460522C4F202000A2103F07E
:1002E800AFFA4FF400606946C4F202004FF0080B01
:1002F800CDF800B003F006FA4FF4006005220321A0
:10030800C4F2020003F09CFA504602F0B1FB242329
:1003180068468DF800308DF801608DF803608DF81F
:10032800025002F0AFFB31464FF4804002F0E2FF8A
:100338004FF46050C4F2000003F096FA4FF4605096
:100348004FF4407320226946C4F200004AF644473D
:10035800ADF80030ADF80220ADF80CB0ADF804509F
:10036800ADF80650029703F0E1FA4FF460503246B8
:10037800C4F20000602103F017FC40F20803C2F247
:1003880000032660C3F80090C3F80480002005B07D
:10039800BDE8F08F40F21443C2F2000370B51A684A
:1003A80005460E460AB9012070BD41F64824C2F23E
:1003B80000044FF460500122C4F2000060215E6026
:1003C800256003F0F1FB4FF46050C4F200000121F6
:1003D80003F044FB002070BD08B540F21443C2F29C
:1003E80000031B680BB9012008BD4FF46050C4F22C
:1003F8000000002103F032FB002008BD4FF46050DC
:1004080038B5C4F20000602103F0E8FB00B938BD3C
:1004180040F21444C2F200044FF46050C4F20000E9
:1004280003F094FBA36804EB4302013340BA3F2B6B
:100438009081A360EBD941F64822C2F2000242F251
:1004480044631168C2F20003002504F10C00322253
:10045800A5600BF0E5FA0123C4F88C3038BD00BF65
:100468002DE9F00F4FF0410C5226492557274FF040
:100478005608452166234FF06D09202400224FF0CD
:10048800460A06704570E2260425077280F809C0FE
:1004980074274FF0100C80F80A80C1724FF00208E0
:1004A8004021037380F80D901F23C4734FF0010B94
:1004B80061244FF0640901760177437680F814B01F
:1004C80080F802A080F803A00271C271427482749D
:1004D800C2744275C2758276C2768277C2774671D7
:1004E8008571877380F810C080F8168080F82080A6
:1004F80080214377134680F8212080F822C080F8B5
:10050800232080F8267080F8282080F8296080F859
:100518002A5080F82B2080F8249080F8254080F815
:100528002740C2180133B3F5EA7F82F82C10F8D1BE
:100538000020BDE8F00F70472DE9F04F102185B07D
:1005480001224FF4FA4043F2CC4440F2AF48FFF79F
:100558007BFEC2F20004C2F200084CF2F8600022EE
:100568000723C0F60000226088F8003007F096FBE9
:1005780041F2FC40C2F2000009F068F90128064681
:1005880003D0022001F010F9FBE743F614104CF2F7
:10059800F861C2F20000C0F600010A2206F05AFE15
:1005A80007460028EDD140F21445C2F2000542F298
:1005B8007860C2F2000085F89060FFF751FF43F6BB
:1005C800141042F2786141F64023C2F20001C2F2EF
:1005D80000034FF40072C2F2000006F0C7FF236860
:1005E80042F2046242F2246003F500730092C2F200
:1005F800000042F224621021236040F2AC4A0192CA
:10060800FFF7C8FE009B019885F89170C2F2000AB6
:1006180041F6482B41F64429C2F20003C2F2000019
:100628002E46C2F2000BAAF800700093C2F200092D
:100638000190CDF80CA0CDF8088041F2FC40C2F240
:10064800000009F003F9002800F09B8003990A884C
:1006580040F6B83392B29A4203D905E109F0F6F8A8
:1006680038B1D5F88C3041F2FC40C2F20000002BC2
:10067800F4D095F891200023012AC5F88C3000F0B9
:10068800CE802268009B0198CBF80030203241F6DA
:1006980044270123C9F800002260C2F2000786F847
:1006A8009130002242F6780A41F64C28A5F89220AB
:1006B800C2F2000AC2F2000817E03968A6F894C02E
:1006C80031F81210B6F8962028F81310724500F089
:1006D800B680B5F89220013292B240F214430F2A44
:1006E800A5F89220C2F2000333D80298B5F89430E6
:1006F8004FF00301017040F2DB50834203F1010C1B
:1007080040F2DC5ED9D9B6F89610814201F1010CAD
:1007180040F2DC5EDDD83868A6F896C030F81220C2
:1007280073452AF81120D4D143F6141041F64C2110
:1007380041F640234FF0000EC2F20001C2F200035E
:1007480040F6B832C2F20000A6F894E006F00EFFB8
:10075800BFE741F2D947C2F200073A78012A3FF4CD
:100768006CAF1B68DDF8088033B14FF46050C4F2F9
:100778000000002103F072F9002206233A7088F87D
:10078800003043F614100021C2F2000007F044F8CC
:10079800D4F800A0216822682368D4F800E027680C
:1007A8002668256842F27864C2F2000401F50079EF
:1007B80002F5007803F5007C43F6141041F6402357
:1007C8004FEA1C6C2146C2F200034FF400724FEA54
:1007D80019294FEA18483F0A360C2D0EC2F20000BC
:1007E80084F807C084F828E084F804A084F8059009
:1007F80084F8068084F8297084F82A6084F82B50DD
:1008080006F0B4FE43F61410C2F2000006F0FCFF36
:100818000020014605B0BDE8F04F06F00BBD226888
:1008280001980099CBF80000203241F64427C9F816
:10083800001086F891302260C2F2000731E743F6D3
:10084800141042F6780141F640234FF0000EC2F230
:100858000001C2F2000340F6B832C2F20000A6F866
:1008680096E006F083FE34E72B68DDF8088033B1A4
:100878004FF46050C4F20000002103F0EFF841F299
:10088800D943C2F2000304200221002288F80000A4
:100898001970C5F88C2074E7704700BFFEE700BFE9
:1008A800FEE700BFFEE700BFFEE700BF704700BFDE
:1008B800704700BF704700BF08B501F0D3FC41F294
:1008C800D943C2F200031B78012B07D140F2AC4395
:1008D800C2F200031A88013292B21A8008BD00BF22
:1008E80008B5022002F064FEA0B140F2AC43C2F2A7
:1008F80000039A78D2B2012A0DD040F21002C2F257
:10090800000200200121107099700220BDE8084003
:1009180002F05EBE08BD40F21001C2F200010020E4
:100928000A709870BDE80840022002F051BE00BF6E
:1009380030B540F2BC43C2F2000383B01B780022FA
:100948008DF80720002B3AD14FF40060C4F2000064
:10095800022103F0A7FF08B903B030BD40F2AC4450
:100968004FF40060C2F20004C4F20000022103F058
:10097800A5FFE578EDB2032D34D0E378042B3BD006
:10098800E378062B42D0E37843B3E378072B47D0CC
:100998004FF40060C4F2000003F0E6FE40F20403E6
:1009A800C2F2000382B21988A0804FF4006012FAE4
:1009B80081F1C4F2000003F06DFC03B030BD0DF10D
:1009C80007003921012201F06FF843F2D040C2F24A
:1009D80000002721062201F067F8B5E7032000F0A0
:1009E800C3FED5E7012000F0DFFE284600F0CCFE6C
:1009F800002000F0C9FECBE7002000F0D5FE032060
:100A080000F0C2FE012000F0BFFEC1E7012000F0A7
:100A1800BBFE002000F0B8FE032000F0C5FEB7E7DB
:100A2800012000F0B1FE002000F0AEFE022000F030
:100A3800ABFE032000F0A8FEAAE700BF08B501201E
:100A480002F0B6FD78B141F2D943C2F200031A7838
:100A5800012A01D01A785AB140F21042C2F20002BB
:100A68000021117019700120BDE8084002F0B0BDE6
:100A780041F2C042C2F20002012102201970116045
:100A880000F040FB0120BDE8084002F0A1BD00BF16
:100A980001F0FABE41F2FC40C2F2000009F0E0BFEA
:100AA8004FF4406008B5C4F202001021002202F0A1
:100AB800BBFE44F6FF73013BFDD14FF44060C4F226
:100AC80002001021012202F0AFFE08BD70B540F20D
:100AD8001404C2F200044FF4961306460D46236030
:100AE80005E023685A1E2260002B00F069814FF44C
:100AF800A840C4F200004FF4003104F0E5FA0028E1
:100B0800EFD14FF4A840C4F20000012104F0B4F979
:100B18004FF48053236005E023685A1E2260002B9F
:100B280000F04E814FF4A8400121C4F20000C0F249
:100B3800030104F0B5FA0028EED04FF4A840C4F23F
:100B480000009421002204F0B3F94FF4805323608D
:100B580005E023685A1E2260002B00F031814FF413
:100B6800A8408221C4F20000C0F2070104F098FAFC
:100B78000028EED04FF4A840C4F20000314604F03B
:100B880029FA4FF48053236005E023685A1E226037
:100B9800002B00F015814FF4A8408021C4F200001A
:100BA800C0F2070104F07CFA0028EED04FF4A84008
:100BB800C4F20000294604F00DFA4FF4961323609E
:100BC80005E023685A1E2260002B00F003814FF4D1
:100BD800A8400421C4F20000C1F2000104F074FA34
:100BE8000028EED04FF4A840C4F20000012104F020
:100BF80051F94FF49613236005E023685A1E2260CA
:100C0800002B00F0E1804FF4A840C4F200004FF43C
:100C1800003104F059FA0028EFD14FF4A840C4F28B
:100C28000000012104F028F94FF48053236005E007
:100C380023685A1E2260002B00F0C6804FF4A8409B
:100C48000121C4F20000C0F2030104F029FA0028CF
:100C5800EED04FF4A840C4F200009421002204F022
:100C680027F94FF48053236005E023685A1E226059
:100C7800002B00F0A9804FF4A8408221C4F20000A4
:100C8800C0F2070104F00CFA0028EED04FF4A84097
:100C98003146C4F2000004F09DF94FF480532360FC
:100CA80005E023685A1E2260002B00F08D804FF467
:100CB800A8400421C4F20000C1F2000104F004FAC3
:100CC8000028EED04FF4A840C4F20000012104F03F
:100CD800D3F84FF48053236004E023685A1E22603F
:100CE800002B71D04FF4A8400121C4F20000C0F2DB
:100CF800030104F0D5F90028EFD04FF4A840C4F25E
:100D080000009421012204F0D3F84FF480532360AB
:100D180004E023685A1E2260002B55D04FF4A846E1
:100D2800C4F2000602213046C1F2000104F0CCF9F9
:100D38000028EED03046002104F0C4F830460121E6
:100D4800338B04F0A7F84FF48053236004E0236842
:100D58005A1E2260002B37D04FF4A8404021C4F21D
:100D68000000C1F2000104F0AFF90028EFD04FF401
:100D7800A840C4F2000004F02FF94FF480524FF459
:100D8800A84306462260C4F2000303E02268511E0D
:100D98002160CAB11A889205F8D44FF4A840C4F269
:100DA8000000012104F08EF84FF4A8404FF4806150
:100DB800C4F20000C1F2000104F0A2F9304605E0D7
:100DC800BDE8704001F03CBA01F03AFA281A18BFA1
:100DD800012070BD01F034FAF9E600BF193038B5CA
:100DE800C4B221462020FFF771FE21460546212086
:100DF800FFF76CFE284438BD0420FF2166E600BFDB
:100E0800F8B540F21405C2F200056868A96802F056
:100E180031F8002838D0EC68002C36D040F21404A1
:100E28006868C2F2000402F01DF80028F6D143F207
:100E38003045C2F200056068A16802F03BF843F251
:100E48007043C2F20003E2682F6860689F60194629
:100E58004FF6FF76B24294BF1A611E6101F076FF29
:100E68006068012101F0BAFFE3682A686068B3424C
:100E780038BF1E4602EB46029E1B2A60E66001212F
:100E8800BDE8F84001F0AABFF8BD6868214601F046
:100E9800A5FF6868A96802F00DF843F23043C2F272
:100EA800000321461868BDE8F84001F0A5B900BF65
:100EB80040F21403C2F200032DE9F00718611A6921
:100EC800012A36D0022802D0BDE8F007704740F268
:100ED800B442C2F2000246F2100C47F20C47202638
:100EE80010250124082004214FF0000AC4F200074D
:100EF800C1F20006C1F20005C1F280044FF40019E6
:100F08004FF00B08C4F2020CC1F20000C1F28001DC
:100F1800C2F800A09F619E601D625C62C3F81490D5
:100F2800C3F81C80C3F804C09862D962BDE8F00712
:100F3800704740F2B442C2F2000246F2B80043F6EB
:100F48000C414FF0000A4FF400194FF02F084FF0F2
:100F580010574FF001564FF008554FF00454C4F2A3
:100F68000200C4F200014FF0205CC2F800A0C3F8F0
:100F78001490C3F81C801F625E629D62DC62586038
:100F88009961C3F808C0BDE8F007704770B540F232
:100F98001406C2F2000682B0F369002468468DF890
:100FA80000308DF801408DF802408DF8034001F0C3
:100FB80069FD2146706801F011FF4FF40065706803
:100FC80001F0C8FDC4F20205FFF76AFD26460121BB
:100FD8000220FFF77BFDC4F20206284669464FF45B
:100FE800A05300938DF804408DF805408DF8064015
:100FF8008DF8074002F086FB1023304669460093BF
:1010080002F080FB30462246042102F019FC2846F3
:1010180022460A2102F014FC224628460C2102F03E
:101028000FFC4FF470568023694628460093C4F29B
:10103800000602F067FB06222846072102F000FCA2
:101048002146304602F00AFD304602F00DFC2146EA
:101058004FF4004002F04EF9204602B070BD00BFC8
:1010680070B570B340F2B444C2F200040420217990
:10107800FFF72CFD217905460420FFF727FD9E2167
:1010880004460220FFF722FD2044451901D0012023
:1010980070BD4FF47054C4F20004204602210122AE
:1010A80002F078FD40F21403C2F2000301215868EF
:1010B80001F094FEA68B06F48066B6B2E6B1284627
:1010C80070BDFFF799FE012104460220FFF7FEFCE0
:1010D8002418DCD14FF470502246C4F200000221DB
:1010E80002F058FD40F21403C2F20003214658688A
:1010F80001F074FE204670BD2046012102F0AEFCCE
:10110800304670BD70B50446FFF776FE022C2FD02E
:1011180002209F21FFF7DAFC40F6FF720546013AEC
:10112800FDD14FF44060C4F20200102102F07CFBB4
:101138000DB1012070BD40F21404C2F2000429462A
:10114800606801F04BFE266AA168626AA36A60685B
:1011580031431143194301F0ADFE4FF47050C4F20E
:101168000000294602F07AFC236B2846E36070BD34
:1011780020469F21FFF7AAFC0546D9E764289FBFB0
:1011880048F21F53C0EB0020C5F2EB1383FB00238A
:101198009DBFC017C0EB6310C0B264201EE600BF3D
:1011A800012806D040F2B443C2F2000304201979A2
:1011B8008CE421E624E600BF22E600BF4FF470501D
:1011C80008B5C4F20000022102F0FEFC88B140F22A
:1011D8001403C2F200031B69022B0BD001F02EF896
:1011E80001464FF47050C4F20000BDE8084002F018
:1011F800B1BC08BD01F022F80146042003F0E2FC6E
:10120800ECE700BF70B540F21404C2F2000443F2E8
:1012180070432569012D06460A46C2F2000316D01E
:10122800194660689E601A6101F090FD60680121AE
:1012380001F0D4FD4FF47050C4F20000838B5B05BD
:1012480000D570BD0121BDE8704002F007BC4A0816
:1012580060681A6119469E6001F078FD6068294649
:1012680001F0BCFDE6E700BF70B540F21404C2F21D
:101278000004B1F5802F0D46216334BF89084FF66D
:10128800FF710646FFF7BEFF226B4FF6FF7143F270
:1012980030438A4228BF0A46C2F20003C2EB550512
:1012A80006EB4206E5601E60002070BD10B5012007
:1012B80086B0C0F22000012101F0F2FF4FF000508B
:1012C800012102F017F800200024102203236946A8
:1012D800C4F2020000928DF804308DF8074002F045
:1012E80011FA204602A902940394059403F002FC23
:1012F8002046012103F01EFC06B010BD2DE9F04F79
:1013080064299EBF48F21F58C1EB0121C5F2EB18B2
:1013180017469CBF88FB0128C91789B098BFC1EB45
:1013280068184FF008004FF0010194BF5FFA88F881
:101338004FF0640801F0B4FF4FF440600224002528
:101348004FF01009012604A9C4F202008DF81540D7
:10135800CDF810908DF814608DF816508DF8175050
:1013680002F0D0F93146072001F09AFF4FF480606F
:101378004FF410730DEB0901C4F2020004938DF8C9
:1013880014408DF815408DF816608DF8175002F04E
:10139800B9F94FF48060C4F202000621042202F079
:1013A8004FFA4FF480600422C4F20200092102F0CF
:1013B80047FA4FF400604FF4A0530DEB0901C4F253
:1013C800020004938DF814408DF815408DF81650DE
:1013D8008DF8175002F096F92846C4F2020004214D
:1013E800062240F2140402F02BFAC2F200044FF471
:1013F8000060C4F202000A21062202F021FA2369E1
:10140800022B00F0F7802846C4F202000DEB090118
:10141800CDF8109002F076F94FF40060C4F20200A3
:101428000C21062202F00CFA4FF4006080230226F9
:101438000025C4F2020004A904938DF814608DF805
:1014480015608DF816508DF8175002F05BF94FF4BF
:1014580000600622C4F20200072102F0F1F9FFF74A
:101468001FFB01214FF4001001F044FF4FF4A84086
:101478004FF48049C4F2000003F032FC4FEA0940FF
:1014880048F2A0634BF6FF7C4FF0330E4FF48062B6
:10149800C0F2010340F4A8400121ADF816C0ADF830
:1014A80018E0ADF81A200493ADF81C90ADF814506C
:1014B80003F0D4FC4FEA094040F4A84004A903F023
:1014C80047FC30460121FFF701FBAF21814604208C
:1014D800FFF7FCFA40F2B446C2F20006AF2381449B
:1014E800812105203371FFF7F1FA04218144062098
:1014F800FFF7ECFA81444046FFF770FC2369022BA2
:1015080000F09B809E210220FFF7E0FA002109EB02
:1015180000050A20FFF7DAFA2369022B054404D0F4
:101528000E200421FFF7D2FA054400212720FFF7F7
:10153800CDFA0F2105EB00081F20FFF7C7FA0A2193
:1015480080441A20FFF7C2FA0A2180441B20FFF7C3
:10155800BDFA012180444FF4004001F0CBFE4FF466
:101568007050C4F2000002F07FF94FF470504FF44D
:1015780000730025C4F200006946ADF80030ADF8EC
:1015880006300297ADF80250ADF80450ADF80C5093
:1015980002F0CCF92369022B3ED00120B8F1000FEC
:1015A80002D009B0BDE8F08F276940F21405012F79
:1015B800C2F2000564D02269012A59D0FFF776FEED
:1015C8004FF47050C4F200007121012202F0ECFACD
:1015D80000233321012204A88DF810108DF8113052
:1015E8008DF812308DF8132001F04CFA002009B064
:1015F800BDE8F08F3046314601F052FE002003234B
:10160800C4F2020004A9CDF810908DF817508DF897
:10161800143002F077F807E74FF00050012101F08D
:1016280069FE284604A904950595079503F062FA12
:101638002846012103F07EFAAFE701210820FFF7D1
:1016480045FA012180460920FFF740FAC02180446D
:101658000E20FFF73BFAC144294681441420FFF7C6
:1016680035FA294681441520FFF730FA814449E7C5
:101678004FF47050C4F20000022102F08BFAB5E773
:101688006869394601F00CFE4146686801F0A6FB1E
:10169800686801F05FFA43F27043C2F200033168F0
:1016A80068681960A969C3F808804FF4006C59602C
:1016B8004FF4005219464FF0400B4FF6FE7A4FF4A4
:1016C80080694FF40036C3F81480C3F82480C3F847
:1016D8002C80C3F83080C3F83480C3F83880C3F84E
:1016E8000CB0C3F810A0C3F81890C3F81CC01A6255
:1016F8009E6201F02BFB686810213A4601F0F8FB66
:10170800EB698DF8118004A88DF810308DF81280DF
:101718008DF8137001F0B6F94DE700BF30B54CF203
:101728000464C0F60004054683B054F82000012183
:1017380004EB450401F0B4FD40F24803228AC2F2EA
:101748000003009253F82500022201230024694671
:101758008DF804308DF807308DF806408DF8052097
:1017680001F0D0FF03B030BD4CF20463C0F60003B3
:1017780040F2480203EB4003C2F20002198A52F811
:1017880020301983704700BF4CF20463C0F6000391
:1017980040F2480203EB4003C2F20002198A52F8F1
:1017A80020305983704700BF40F24803C2F200035B
:1017B8004CF20462C0F6000253F8203002EB4002FB
:1017C8005969128A4A405A61704700BF30B50446C9
:1017D800012087B00D46014601F062FD4FF48040BC
:1017E800012101F095FD06AB40F248020121C2F249
:1017F800000202EB840243F8101D002410698DF8E2
:101808000C4019468DF80F4001F07CFF012D01D0E6
:1018180007B030BD2146204602F014FA082304A878
:101828008DF8153004958DF814408DF8165001F098
:101838005FFE0F23062201A88DF807508DF80420BB
:101848008DF805308DF8063001F01CF907B030BD71
:1018580008B540F24803C2F2000303EB80000121FF
:10186800006901F0C9FF08BD38B540F25C04C2F256
:1018780000044FF480530546236003E023685A1E92
:10188800226043B34FF44050C4F20100022102F039
:101898009BF90028F2D04FF440502946C4F20100C9
:1018A80002F058F94FF48053236003E023685A1E6E
:1018B800226083B14FF44050C4F20100012102F0CC
:1018C80083F90028F2D04FF44050C4F2010002F02E
:1018D8003DF9C0B238BD00F087FCC0B238BD00BFCA
:1018E80070B5012A04464FF480500E461546C4F2DE
:1018F80002004FF0080118D901F094FF46F04000AB
:10190800FFF7B2FF013DADB20135254414F8010BD4
:10191800FFF7AAFFAC42F9D14FF48050C4F202009D
:101928000821BDE8704001F07BBF01F07BFF304625
:10193800FFF79AFF002DE5D1EEE700BF2DE9F04F44
:1019480089B00024804601214FF480508DF803406F
:1019580001F0DEFC0120014601F0A2FC102001216B
:1019680001F09EFC1020012101F09AFC264610206F
:10197800012101F095FCC4F20206052130460A4611
:1019880008AD01F05DFF30460621052201F058FF41
:101998004FF0200A05223046072101F051FF45F893
:1019A8001CAD0227304629468DF80A408DF808708C
:1019B8008DF80B708DF809704FF4405901F0A2FEB4
:1019C800304629468023C4F20109019301F09AFEAA
:1019D800294640233046019301F094FE484601F021
:1019E80043FF4FF0080B4FF4007E07224FF4827339
:1019F800484603A94FF48056ADF816E0ADF81C2010
:101A0800ADF80E30C4F20206ADF80C40ADF8104047
:101A1800ADF81240ADF81440ADF81A40ADF818B062
:101A280001F05AFF4846012102F00AF84FF0010977
:101A3800294630468DF80A40CDF804B08DF8097073
:101A48008DF8089001F05EFE3046594601F0E8FE38
:101A5800304629468DF808408DF80A408DF80B402D
:101A6800CDF804908DF8097001F04CFE30462946F7
:101A7800019701F047FE98F8004098F8013098F86F
:101A8800030098F8041098F80220234303430B43FB
:101A98000DEB0A00134300F81D3D51464A46FFF777
:101AA8001FFF09B0BDE8F08F70B5012A04464FF456
:101AB80080500E461546C4F202004FF0080119D9AD
:101AC80001F0B0FE46F0C000FFF7CEFE013DADB21A
:101AD800013525440020FFF7C7FE04F8010BAC428E
:101AE800F8D14FF48050C4F202000821BDE87040DC
:101AF80001F096BE01F096FE46F08000FFF7B4FEB6
:101B0800002DE3D1EDE700BF30B583B002AC002370
:101B180004F8013D0546212120460122FFF7C4FFB4
:101B280068782B78A9789DF8072003430B4322F0A7
:101B38002F0213432046212101228DF80730FFF799
:101B4800CFFE03B030BD00BF30B583B002AC002378
:101B580004F8013D0546382120460122FFF7A4FF7D
:101B680069782B78AA780B43134320463821012241
:101B78008DF80730FFF7B4FE03B030BD10B582B062
:101B8800044620210DF107000122FFF78DFF9DF883
:101B9800073023F040031C430DF1070020210122E8
:101BA8008DF80740FFF79CFE02B010BD10B582B05B
:101BB800044620210DF107000122FFF775FF9DF86B
:101BC800073003F07F031C430DF107002021012299
:101BD8008DF80740FFF784FE02B010BD10B582B043
:101BE800044620210DF107000122FFF75DFF9DF853
:101BF800073023F020031C430DF1070020210122A8
:101C08008DF80740FFF76CFE02B010BD00B583B039
:101C18000DF1070021210122FFF746FF9DF807304B
:101C28000DF1070043F04003212101228DF8073010
:101C3800FFF756FE03B05DF804FB00BF10B584B093
:101C48002021012204460DF10700FFF72DFF06228F
:101C580002A82921FFF728FF9DF8073003F0200389
:101C680003F0FF029BB182B19DF908109DF90A208B
:101C78009DF90C3001EBC10102EBC20203EBC30377
:101C8800C900D200DB0084E80E0004B010BD9DF945
:101C980008109DF90A209DF90C3001EBC10102EBF7
:101CA800C20203EBC303490052005B0084E80E0044
:101CB80004B010BD4FF46053C4F202030022196847
:101CC80041F0010119609A60186843F2100120F090
:101CD8008470C2F2004120F480301860596019689D
:101CE80082B021F480211960DA60009201921A68AA
:101CF80042F480321A601A4603E0009BB3F5A06FE5
:101D080009D0136803F400330193009B0133009357
:101D1800019B002BF1D04FF46053C4F202031B68FF
:101D280013F4003318BF01230193019B012B1DD02D
:101D38004FF46052C4F202024FF481439168C3F237
:101D4800000321F400019160C2F88430136843F065
:101D58008063136013681B01FCD54FF46D43CEF20A
:101D680000034FF000629A6002B070474FF460536E
:101D7800C4F202034FF4E042196CC4F2000241F0CD
:101D880080511964116841F4804111609A689A6021
:101D98009A6842F400429A60996845F2084241F410
:101DA800A051C0F2407299605A601A6842F080727D
:101DB8001A6019460A684FF460539201C4F202038C
:101DC800F8D54FF47052C4F2020240F20561116076
:101DD8009A6822F003029A609A6842F002029A60B6
:101DE8009A6802F00C02082AFAD1A1E74FF460536E
:101DF800C4F202039A6802F00C02042A36D0082AB8
:101E080012D04FF41051C0F2F4014FF46052C4F2F2
:101E1800020240F260039268C2F20003C2F30312A6
:101E28009A5CD1401961704758685A6810F4800F5D
:101E3800586815BF47F640034FF41053C0F27D139E
:101E4800C0F2F40302F03F02B3FBF2F14FF4605327
:101E5800C4F20203C0F388105B68C3F30143013383
:101E680001FB00F15B00B1FBF3F1CEE747F640015F
:101E7800C0F27D11C9E700BFFFF7F2B808B5FFF758
:101E88007DF9002008BD00BF0220FFF73BB900BF65
:101E98002DE9F04F87B0002506AC8346402604A8FC
:101EA8004FF0070A10278DF810604FF03F098DF8A2
:101EB80004508DF811508DF813508DF814508DF88A
:101EC80012A0FFF73BFD202302A88DF80A308DF8F9
:101ED80008608DF80970FFF737FE04F8149D222179
:101EE80020460122FFF7FCFC20465023382101221E
:101EF8008DF80430FFF7F4FC2046AA233B21012289
:101F08008DF80430FFF7ECFC20460A233C2101221F
:101F18008DF80430FFF7E4FC4C23204630210122E1
:101F28008DF804300326FFF7DBFC20463D21012213
:101F38008DF804604FF07F08FFF7D2FC20463E2161
:101F480001228DF80480FFF7CBFC01224946204688
:101F58008DF80480FFF7C4FC3846012101F0A0F990
:101F68004FF48040012101F0D3F94FF4805002A9C9
:101F7800C4F2020002968DF80C508DF80F5001F053
:101F8800C1FB0121042001F05DFE01260222082385
:101F98000DEB070004928DF815308DF814508DF86C
:101FA800166001F0A5FA4FF4806000F061FD20464C
:101FB8008DF804A08DF805508DF806508DF807604F
:101FC80000F060FD3046FEF773FF40F27403C2F282
:101FD80000035A4619780420FFF790F9284607B0FD
:101FE800BDE8F08F2DE9F04F40F2BC4240F21043BB
:101FF80083B0C2F20002C2F2000300274FF00109C9
:1020080082F80090009201931F70FFF741FF43F29E
:10201800CC42C2F2000240F22003C2F2000343F2B3
:10202800D84011681F60C2F2000005F0F5FB009A65
:1020380043F2D84043F2C843111DC2F200034FF4E3
:102048008062C2F2000005F0B9F9009A43F2D84064
:1020580043F2C84302F60401C2F200034FF480625F
:10206800C2F2000005F0AAF9009B4FF48061181D28
:10207800FFF7C8F841F2B45540F2AF4840F21006F5
:1020880040F2AE4340F2740AC2F20006C2F2000502
:10209800C2F20008C2F20003C2F2000A062241F2AC
:1020A800D94B45F8F47C8AF8019088F8002034462A
:1020B80086F80090C2F2000B1F7055F8F03C41F210
:1020C800B457C2F20007002B54D041F2FC40C2F2D0
:1020D800000007F0BBFB00284CD09BF80030002B19
:1020E80075D14FF00609022755F8F43C41F2FC403F
:1020F800C2F20000C3B907F0A9FBA8B1337803F016
:10210800FF02002B44D02378012BEDD188F80090F2
:102118002078FEF7A5FF277055F8F43C41F2FC4003
:10212800C2F20000002BE6D09AF80130002745F8EB
:10213800F47CA3BB2A484FF48061FFF763F843F2AD
:10214800D84043F2C843C2F200034FF48062C2F29F
:102158000000244905F032F940F27402C2F200028C
:102168000123537055F8F03C41F2B457C2F200070E
:10217800002BAAD1072288F80020019A00231370A7
:10218800009A0220137003B0BDE8F04FFEF7BABF03
:1021980088F800202078FEF763FF2770A4E711482D
:1021A8004FF48061FFF72EF843F2D84043F2C8435A
:1021B800C2F20003C2F2000009494FF4806205F040
:1021C800FDF840F27403C2F200035F7075E7022065
:1021D800FEF798FF019A002347F8F03C1370C9E70F
:1021E800C0040020C00C0020FEE700BF08B5891A13
:1021F800FFF73AF8002008BD41F2B453C2F20003D9
:10220800012243F8F42C53F8F02C2AB153F8F02C9F
:10221800A2F5806243F8F02C53F8F02C41F2B45345
:10222800B2F5806FC2F200033CBF002243F8F02CE5
:10223800704700BF704700BFFEE700BF002070472F
:102248000020704782B041F2B4520190019BC2F263
:10225800000242F8EC3C52F8EC3C002BFBD102B0F7
:10226800704700BF41F2B453C2F2000353F8EC2C9C
:1022780022B153F8EC2C013A43F8EC2C704700BF1C
:102288002DE9F04F85B043F6302304A940F27406D7
:10229800C0F22F03C2F2000643F6385041F8043D5D
:1022A800C2F200000123737005F088FB70B141F29F
:1022B800B454C2F200040A250220FFF775FA44F864
:1022C800EC5C54F8EC3C002BFBD1F5E740F2A4435E
:1022D800C2F2000341F2B4541B78012B0BBF4CF23D
:1022E800F8634CF20473C0F60003C0F60003C2F2B0
:1022F800000443F2D8401946C2F20000012244F813
:10230800E83C04F0A7FFA0BB40F2BC45C2F20005C0
:1023180043F2D84043F2C843291DC2F200034FF4E8
:102328008062C2F2000005F049F8A97968792B7932
:10233800EA79090441EA00210B4343EA026212BA2E
:1023480044F24663C5F249239A4225D043F2B0428B
:10235800C2F200020123B370B3780A25ABB10220A0
:10236800FFF722FA44F8EC5C54F8EC3C002BFBD164
:10237800F5E70220FFF7F8F941F2D943C2F200036A
:1023880001221A7005B0BDE8F08F5369906844F8CF
:10239800F03CFFF727FEF5E7AA7A95F80980AF7BAE
:1023A800287A95F80DC095F80BE02B7BE97B120491
:1023B80042EA08283F0443F2B04248EA0000C2F269
:1023C800000247EA0C2740EA0E603B43106043EAEC
:1023D800016109BA45F24563C5F24173994218BFD4
:1023E8000223B8D1A87C6F7C2B7CE97C000440EAEE
:1023F8000720034343EA016109BA47F22043C6F2C2
:102408006D63994218BF0323A5D1AF7D95F815C018
:10241800297D2B7E687E95F817E03F0447EA0C2754
:1024280043EA00200F4340F2BC4343F2B04147EA7D
:102438000E6E0128C2F20003CDF800E09080C2F2CF
:10244800000118BF042386D193F822E093F81EC038
:1024580093F8218093F8200093F81DA01F7F93F82C
:10246800239093F81FB04FEA0E4E4FEA0C4C4EEAF9
:1024780008284CEA0A2A93F81AE093F81BC048EA9D
:10248800000893F824004EEA0C2E019093F826C019
:1024980093F82700A1F806E04AEA070A48EA09681B
:1024A80093F82570DDF80490C1F80C804CEA002000
:1024B8004AEA0B6A49EA07271028C1F808A00F82E0
:1024C800488218BF07237FF446AF009824211028BC
:1024D80044F8E41C41D154F8E45C3C48002150FA2B
:1024E80085F50B4615F803E0DF0001330EFA07F710
:1024F800042B41EA0701F5D109BA47F2614554F8BE
:10250800E47CC6F26145043741F2B453A942C2F2F1
:10251800000344F8E47C18BF08237FF41CAF53F889
:10252800E43C002150FA83F00B46C75CDD00013320
:1025380007FA05F5042B41EA0501F6D154F8E43C05
:102548005161043344F8E43C43F2CC4154F8E40CC0
:10255800C2F2000100230860FDE693F8290093F811
:10256800281051EA002118BF09237FF4F4AE93F82C
:102578002CE093F82B7093F82A0093F82D104FEA6B
:102588000E4343EA0723034343EA016109BA46F2CB
:102598007433C6F26163994218BF0A237FF4DBAE35
:1025A80095F830E095F82F7095F82E3095F83100B1
:1025B80054F8E41C4FEA0E4545EA07252B4343EA45
:1025C80000630A310B4444F8E43C84E7C00400206B
:1025D800F8B540F2100140F2104E40F2BC4740F20C
:1025E800AF4641F2B45240F2AE43C2F2000EC2F21C
:1025F8000003C2F20001C2F200020125C2F2000784
:10260800C2F2000600244FF0070C28468EF800405E
:102618003C7086F800C00D7042F8F04C1C70FEF754
:1026280071FD2846FFF7B0F82046FFF7ADF8032004
:10263800FFF7AAF84FF400602246C4F20000022116
:1026480002F01AF920462146BDE8F84004F0F2BD30
:10265800F0B48AB1002501442C460F5DE600013430
:1026680007FA06F6944245EA0605F6D3012B00D18F
:102678002DBA2846F0BC70471546F7E730B541F249
:10268800D444C2F20004034685B00D464FF08040A2
:102698000021236001F09AFC4FF0804001210022C4
:1026A80002F0EAF8022D04BF0B23029304D0012D97
:1026B80004BF42F6DF630293002305224FF08040F7
:1026C80001A9ADF80420ADF80C30ADF8063001F0E2
:1026D800CFFB4FF08040012102F0F0F84FF080402E
:1026E800012101F04DFC01210A464FF0804002F023
:1026F800C3F84FF08040012101F068FC21680029EF
:10270800FCD14FF0804001F061FC05B030BD00BF46
:1027180000200146FFF75AB8F0B50120002485B023
:10272800C4F20204014600F0BBFD00260223032781
:10273800204602A94FF4D0528DF80C3002928DF841
:102748000D708DF80E608DF80F6000F0DBFF2046ED
:1027580009210A2201F074F820460B210A2201F00F
:102768006FF820460A220C2101F06AF801254FF47F
:10277800806302A9204602938DF80D708DF80E50E3
:102788008DF80F5000F0BEFF0A210A46204601F0DE
:1027980057F829464FF4804000F0BAFD29468020BA
:1027A80000F08CFD31464FF0006000F0ABF94FF4BB
:1027B800A06000F05DF91C2301A88DF804308DF8A5
:1027C80005608DF806508DF8075000F05BF9284633
:1027D800294600F08FFD05B0F0BD00BF10B54FF4DD
:1027E800C06082B000F044F9012401A843238DF8A9
:1027F80004308DF805408DF806408DF8074000F04C
:1028080041F91722022301A88DF805408DF80740E9
:102818008DF804208DF8063000F034F902B010BDB0
:102828004FF40060C4F2020011B1012100F0FABFB8
:10283800012100F0F5BF00BF30B54FF4006583B04B
:10284800C4F202050420012100F02AFD012400231E
:102858000222284669468DF805208DF806308DF845
:10286800073000948DF8044000F04CFF28462146BC
:1028780000F0D6FF2146C820FFF700FF03B030BDA7
:102888000221FBE60121F9E608B54FF0804001215D
:1028980002F008F800B908BD01214FF0804002F0AD
:1028A8000DF841F2D443C2F20003196819B11A684D
:1028B800013A1A6008BD4FF08040BDE8084001F0B9
:1028C80085BB00BF704700BF704700BF704700BF9F
:1028D800704700BF704700BF704700BF704700BF18
:1028E800704700BF704700BF704700BF704700BF08
:1028F80001207047704700BF41F2D843C2F200037D
:1029080000221A70704700BF10B540F2104240F222
:10291800AF43C2F20002C2F20003072100240220E2
:1029280014701970FEF730FF2046FEF71DFF4FF4B4
:102938000060C4F2000002210122BDE8104001F04D
:102948009BBF00BF38B50220FEF70EFF4FF40060B2
:10295800C4F200000221002201F08EFF41F2C443BC
:10296800C2F2000341F2D8441B68C2F2000433B13A
:102978006378012B03D0FFF72BFE00236370657883
:10298800EDB241F2D844012DC2F2000400D038BDA6
:10299800FDF722FD2846FEF7F7FE40F2AC4240F272
:1029A800AF43C2F20002C2F20003002007216570A3
:1029B8001080197038BD00BF41F2D843C2F200033D
:1029C8005B7803F0FF0253B1012A07D140F21043AC
:1029D800C2F2000300221A70FDF7AEBD704740F244
:1029E8001043C2F200031B7803B17047FFF748BCDD
:1029F80010B541F2D844C2F20004207840B1012851
:102A080004D1FFF7D9FF0020207010BD002010BDB1
:102A180043F65451C2F2000104F00CFC80B944F2B0
:102A2800D833C2F200031B7B012B02D00123237091
:102A380010BD0220FEF798FE0220FEF795FEF8E78B
:102A48004FF0FF3010BD00BF08B54FF4FA70FFF724
:102A580019FFBDE80840FFF7CBBF00BF6CC70008EF
:102A680000000020F0030020F40300202846002086
:102A78004FF46D4340F0BF60CEF2000340F40030E5
:102A8800D8607047C37870B47BB902784FF461435B
:102A98005109203102F01F020120CEF2000300FA92
:102AA80002F243F8212070BC70474FF46D43CEF218
:102AB80000034678DA6884780378D243C2F30222A6
:102AC800C2F104010F25C9B206FA01F145FA02F272
:102AD800C9B222400A4303F1604303F5614312017E
:102AE800D2B283F8002302784FF4614302F01F0149
:102AF80001205209CEF2000300FA01F143F8221036
:102B080070BC704721F060414FF46D4321F07F01A4
:102B1800CEF2000308439860704700BF4FF46D433E
:102B2800CEF200031A6919B922EA00001861704749
:102B380010431861704700BF4EF21003CEF2000335
:102B480004281A680CBF42F0040222F004021A603A
:102B5800704700BF10B446F210020468C4F20202C3
:102B68000023904224F00104046003604360836002
:102B7800C360036104BF4FF4C043C4F202034FF0C3
:102B8800210108BF3D22416108BF9A6000F0A28080
:102B980046F22803C4F20203984201BF4FF4C0432F
:102BA800C4F202034FF474629A6000F0938046F214
:102BB8004003C4F20203984201BF4FF4C043C4F279
:102BC80002034FF474129A6000F0848046F25803AE
:102BD800C4F20203984201BF4FF4C043C4F2020397
:102BE8004FF074629A6075D046F27003C4F2020323
:102BF80098427BD046F28803C4F2020398427ED002
:102C080046F2A003C4F20203984266D046F2B80323
:102C1800C4F20203984201BF4FF4C043C4F2020356
:102C28004FF03D52DA6055D046F21043C4F2020329
:102C3800984201BF4FF4C843C4F202033D229A6090
:102C480048D046F22843C4F20203984201BF4FF429
:102C5800C843C4F202034FF474629A603AD046F251
:102C68004043C4F20203984201BF4FF4C843C4F280
:102C780002034FF474129A602CD046F25843C4F2FF
:102C88000203984201BF4FF4C843C4F202034FF055
:102C980074629A601ED046F27043C4F202039842EE
:102CA80037D046F28843C4F2020398423AD046F23B
:102CB800A043C4F2020398423ED046F2B843C4F29D
:102CC8000203984201BF4FF4C843C4F202034FF015
:102CD8003D52DA605DF8044B70474FF4C043C4F2CC
:102CE80002030022C2F23D02DA60F3E74FF4C04368
:102CF800C4F202033D22C2F20002DA60EAE74FF4AE
:102D0800C043C4F202034FF47462C2F20002DA60F4
:102D1800E0E74FF4C843C4F202033D22C2F20002C6
:102D2800DA60D7E74FF4C843C4F202034FF4746281
:102D3800C2F20002DA60CDE74FF4C843C4F20203DE
:102D48000022C2F23D02DA60C4E700BFCA680B681D
:102D5800D0F800C02DE9F0014F698E69CD690C6A81
:102D680042EA030848EA07073E434B6A0F6B3543BC
:102D78002C4344EA03028C6A42EA04034A6B8C6BD4
:102D880048F23F061343CFF21C0623430CEA06061B
:102D98001E4306604569CE6A0C694A688B6825F04F
:102DA800070547EA06012943416144608260BDE89E
:102DB800F001C360704700BF002303604360836075
:102DC800C360036143618361C361036243628362D9
:102DD800C362036343638363704700BF036819B921
:102DE80023F001030360704743F001030360704759
:102DF800036819B923F400430360704743F40043A0
:102E080003607047036819B923F020030360704713
:102E180043F020030360704741607047406880B208
:102E2800704700BF036822B923F4002303600161DF
:102E3800704743F40023036001617047036819B9C0
:102E480023F480230360704743F4802303607047B2
:102E58000AB9C16070470161704700BF0068C0F3DC
:102E6800C0407047006800F001007047406900F0FA
:102E78003800704710B44FF4C84246F20F444FF47C
:102E8800C043C4F20203C4F20204C4F20202A04224
:102E98008CBF104618468B004CBF436803685DF82A
:102EA800044B21F0F02121F0821119420CBF0020BF
:102EB8000120704710B44FF4C84246F20F444FF453
:102EC800C043C4F20204C4F20202C4F20203A042E4
:102ED8008CBF1046184611F0005F21F0F02121F058
:102EE800821114BFC16081605DF8044B704700BF58
:102EF8000B060CD54369AAB143F0800380294361CE
:102F08000FD0036801F01E01194301607047802942
:102F180007D0002AF5D1036801F01E0123EA010158
:102F28000160704723F0800380294361F3D1704723
:102F380070B44FF4C04246F20F454FF4C84421F034
:102F4800F023C4F20205C4F20204C4F2020223F020
:102F5800C316A84288BF224696B1046804F01E042E
:102F680004EAD12489004CBF5268126823F0821306
:102F780013EA020002D0201C18BF012070BC704761
:102F8800446904F08004EDE710B44FF4C84246F2F7
:102F98000F444FF4C043C4F20204C4F20202C4F264
:102FA8000203A0428CBF1046184611F0005F21F0C2
:102FB800F02121F0821114BFC16081605DF8044BDB
:102FC800704700BF4FF46053C4F20203002219682F
:102FD80041F0010119609A60186843F2100120F06D
:102FE8008470C2F2004120F480301860596019687A
:102FF80021F480211960DA60704700BF43F60203AC
:10300800C4F2020300221A701870704782B00023BD
:103018004FF460520193C4F2020213689B030FD469
:10302800019B01330193019BB3F5A06FF5D14FF4D8
:103038006053C4F202031868C0F3404002B07047FE
:10304800019B01330193019BF1E700BF4FF46053EB
:10305800C4F202031A6822F0F80242EAC0001860BB
:10306800704700BF0023C4F247231860704700BFB1
:1030780043F67003C4F20203002201281A701A7082
:1030880005D0042802D105221A70704770471870BD
:10309800704700BF4FF46863C4F247231860704755
:1030A80010B4019C40EA04605B0801434FF460548B
:1030B800C4F20204013B41EA821242EA034363601C
:1030C8005DF8044B704700BF6023C4F247231860C3
:1030D800704700BF4FF460530907C4F2020341EA86
:1030E8008010C3F8840070476823C4F2472318602F
:1030F800704700BF4C23C4F247231860704700BFD5
:103108004FF46053C4F202039A6822F0EC62114350
:1031180008439860704700BF4FF46053C4F202033D
:103128009A6822F07842114308439860704700BFBC
:103138004FF46053C4F202039A6822F0030210436A
:10314800986070474FF46053C4F20203986800F027
:103158000C0070474FF46053C4F202039A6822F0DF
:10316800F0021043986070474FF46053C4F20203B2
:103178009A6822F4E0521043986070474FF4605305
:10318800C4F202039A6822F4604242EAC0009860DE
:10319800704700BF4FF46053C4F2020310B49A683A
:1031A80002F00C02042A24D0082A28D04FF4105127
:1031B800C0F2F40101604FF46052C4F2020240F21E
:1031C800C0039468C2F20003C4F303141C5DE14019
:1031D80041609468C4F382241C5D21FA04F484607D
:1031E80092685DF8044BC2F342329B5CD940C160DF
:1031F800704747F64001C0F27D110160DBE75C686B
:103208005A6814F4800F5C6815BF47F640034FF402
:103218001053C0F27D13C0F2F40302F03F02B3FB77
:10322800F2F14FF46053C4F20203C4F388145B68EC
:10323800C3F30143013301FB04F15B00B1FBF3F17C
:103248000160B8E700F44073B3F5407F0CD14FF448
:103258006053C4F2020320F070419A6821F440716F
:1032680022F4F8120A439A604FF46053C4F202033E
:10327800C0F30B001A6F10431867704740F63C63A1
:10328800C4F24723186070474FF46463C4F24723BD
:10329800186070474FF4AE73C4F247231860704744
:1032A8004FF46053C4F202031A6B19B922EA000002
:1032B8001863704710431863704700BF4FF460539A
:1032C800C4F202035A6B19B922EA00005863704726
:1032D80010435863704700BF4FF46053C4F20203B1
:1032E8009A6B19B922EA00009863704710439863F3
:1032F800704700BF4FF46053C4F202031A6C19B947
:1033080022EA00001864704710431864704700BF31
:103318004FF46053C4F202035A6C19B922EA000050
:103328005864704710435864704700BF4FF46053A7
:10333800C4F202031A6919B922EA00001861704739
:1033480010431861704700BF4FF46053C4F2020382
:103358005A6919B922EA0000586170471043586148
:10336800704700BF4FF46053C4F202039A6919B959
:1033780022EA00009861704710439861704700BFC7
:103388004FF46053C4F202031A6A19B922EA000022
:103398001862704710431862704700BF4FF46053BB
:1033A800C4F202035A6A19B922EA00005862704747
:1033B80010435862704700BF4FF46053C4F20203D1
:1033C8001A6D19B922EA000018657047104318658C
:1033D800704700BF4FF46053C4F202035A6D19B925
:1033E80022EA00005865704710435865704700BFCF
:1033F8004FF46053C4F202039A6D19B922EA00002F
:103408009865704710439865704700BF4FF4605344
:10341800C4F202031A6E19B922EA0000186670474E
:1034280010431866704700BF4FF46053C4F202039C
:103438005A6E19B922EA0000586670471043586658
:10344800704700BF43F60D03C4F202031A7819B996
:1034580022EA00001870704710431870704700BFC8
:103468004309012B0ED0022B4FF46053C4F2020320
:1034780000F01F000CBF1B6F5B6F23FA00F000F019
:10348800010070474FF46053C4F2020300F01F00BC
:103498001B6823FA00F000F0010070474FF46053F6
:1034A800C4F202035A6F42F080725A67704700BF35
:1034B8004FF46053C4F20203DB6818420CBF0020CB
:1034C8000120704743F60E03C4F2020318707047D8
:1034D8004FF47053C4F201034FF6FF710022C0F29B
:1034E8007F011A605A609A60DA605961704700BFBC
:1034F800837970B443B34FF47053C4F20103016885
:103508001E6802794579CC4326401E605E6802F148
:10351800804202F59E3234405C6014682143116099
:1035280002689868D14308409860D868102D01EA6D
:103538000001D96014D005F1804505F59E352B684A
:103548001A432A6070BC70470379016803F180430D
:1035580003F59E3370BC1A6822EA01021A607047AC
:10356800996811439960D9680A43DA6070BC70475A
:1035780000230C224271036003718371704700BFFE
:103588004FF47053C4F201031A691043186170476D
:103598004FF47053C4F201035B6918420CBF00205A
:1035A800012070474FF47053C4F20103586170470B
:1035B8004FF47053C4F201031A685B69034004D0E6
:1035C80010420CBF0020012070471846704700BF0A
:1035D8004FF47053C4F201035861704708B50023D3
:1035E800C4F2020398423CD04FF48063C4F2020351
:1035F800984240D04FF40063C4F20203984244D08A
:103608004FF44063C4F20203984248D04FF4805309
:10361800C4F2020398424CD04FF4A053C4F2020300
:10362800984250D04FF4C053C4F20203984254D089
:103638004FF4E053C4F20203984258D04FF40053B9
:10364800C4F20203984200D008BD4FF480700121F3
:10365800FFF76CFE4FF480700021BDE80840FFF7CB
:1036680065BE01200146FFF761FE01200021BDE88B
:103678000840FFF75BBE02200121FFF757FE02203A
:103688000021BDE80840FFF751BE04200121FFF7E3
:103698004DFE04200021BDE80840FFF747BE082082
:1036A8000121FFF743FE08200021BDE80840FFF78D
:1036B8003DBE10200121FFF739FE10200021BDE892
:1036C8000840FFF733BE20200121FFF72FFE2020FE
:1036D8000021BDE80840FFF729BE40200121FFF77F
:1036E80025FE40200021BDE80840FFF71FBE8020CE
:1036F8000121FFF71BFE80200021BDE80840FFF7ED
:1037080015BE00BF00222DE9F00713460E680127F9
:103718004FF0030804E00133102B02F102022CD011
:1037280007FA03F404EA0605A542F4D1D0F800909C
:1037380091F804C008FA02F4E44304EA0909C0F85D
:103748000090D0F800900CFA02FA0CF1FF3C4AEA1B
:103758000909BCF1010FC0F8009011D9C56891F8AA
:1037680007C02C40C460C5680CFA02F401332C432E
:10377800102BC46002F10202D2D1BDE8F0077047F5
:10378800D0F808A091F8059091F806C004EA0A0A52
:10379800C0F808A0D0F808A009FA02F949EA0A090D
:1037A800C0F80890D0F8049029EA050545604568F6
:1037B8000CFA03FC1FFA8CFC4CEA05054560CDE7C2
:1037C80000234FF6FF720260037143718371C37166
:1037D800704700BF82B04FF480330193019B0B43C5
:1037E8000193019BC361C161019BC361C3690193DB
:1037F800C369019302B07047036919420CBF0020E6
:1038080001207047006980B2704700BF43691942C0
:103818000CBF002001207047406980B2704700BF8C
:1038280001837047418370470AB941837047018318
:10383800704700BF41617047436959404161704713
:10384800CB0800EB830001F0070110B48900046A7B
:103858000F238B4024EA03030362036A5DF8044BD9
:103868008A4013430362704708B54FF44053C4F2CB
:103878000103984218D04FF46053C4F200039842F1
:103888001ED04FF47053C4F20003984200D008BD14
:103898004FF400400121FFF773FD4FF40040002171
:1038A800BDE80840FFF76CBD4FF480500121FFF7D9
:1038B80075FD4FF480500021BDE80840FFF76EBD4C
:1038C8004FF480400121FFF75BFD4FF48040002159
:1038D800BDE80840FFF754BD2DE9F007B1F802A094
:1038E800B1F80090B1F804800F894E898D89CC8990
:1038F800B1F806C00A8A03884AEA090141EA0801C0
:1039080041EA0C01394331432943214303F441532C
:103918000B439BB20380838B23F400631B041B0CB3
:103928008383BDE8F0070282704700BF838B8A68F3
:1039380023F47B6323F00F031B042DE9F0031B0C16
:10394800022483830484868BA242B6B25ED04FF4ED
:103958006053C4F202038C889D68002C0CBF4FF0A2
:10396800010C4FF0020C2D0242BF9D6825F40005A2
:103978009D604FF46053C4F2020347F64005D3F844
:103988008480D3F88470D3F80490CB8809F03F0979
:10399800C0F27D15C8F38818B5FBF9F5B3F5007FBB
:1039A800C7F3027708FB05F5B5FBF7F516BF4FEA35
:1039B8004C1C2D0AB5FBFCF505EB85056D00B5FB28
:1039C800F2F205324CF6CD45CCF6CC4592B2A5FBC9
:1039D8000272D2085508AF1E02F00102FD2F94BFF3
:1039E80045EA02220222B1F800C04F888D8946EAD2
:1039F8000C0141F4006139432943134389B20C4354
:103A08009BB203848483BDE8F00370478C88CB881D
:103A1800E9E700BF002307220282038043808380F6
:103A2800C380038143818381C381704700230222BD
:103A38008260038043808380C3808381704700BF96
:103A4800038829B923F040031B041B0C038070472B
:103A58009BB243F040030380704700BF838B29B9B2
:103A680023F480631B041B0C838370479BB243F4CD
:103A780080638383704700BF038823F400631B04BB
:103A88001B0C038003889BB219430180704700BF59
:103A98000388B1F5804F15BF23F480439BB21B0404
:103AA80043F4804318BF1B0C038070474FF6FF6335
:103AB800994203880BBF23F480739BB21B0443F421
:103AC800807308BF1B0C0380704700BF838829B927
:103AD80023F004031B041B0C838070479BB243F044
:103AE80004038380704700BF838829B923F010033B
:103AF8001B041B0C838070479BB243F01003838028
:103B0800704700BF838B23F47B6323F00F031B04F0
:103B180002221B0C83830284828B0B8830B44D886D
:103B28008C88898992B22A4342F4006223F4007394
:103B380022431B040A431B0C92B2002B0CBF4FF408
:103B4800807300231343838330BC7047808980B21D
:103B5800704700BF81817047038829B923F4005357
:103B68001B041B0C038070479BB243F40053038073
:103B7800704700BF03889BB243F4805303807047AB
:103B8800012914BF008B808A80B27047008A80B2F6
:103B9800704700BF83889BB21AB923EA010181806C
:103BA80070471943818070470123090903FA01F11D
:103BB800838889B29BB21AB923EA010181807047D0
:103BC80019438180704700BF038919420CBF002048
:103BD80001207047C94389B20181704710B48488B5
:103BE800008901F00F03012280B202FA03F31840A2
:103BF800A4B205D009098A4014420CBF0020012054
:103C08005DF8044B704700BF01F00F01012303FA70
:103C180001F1C94389B20181704700BF08B54FF46B
:103C280080400121FFF7BAFB4FF480400021BDE836
:103C38000840FFF7B3BB00BF4FF46053C4F2010361
:103C48001860704701F0FC0303F1804303F59C33CF
:103C580001F0030110B489009C680F228A4024EA0D
:103C680002029A609A685DF8044B884002439A60A1
:103C7800704700BFDC23C4F227231860704700BFD9
:103C88004FF48063C4F22723186070474FF46053E1
:103C9800C4F20103186AC0F30020704708B5002376
:103CA800C4F2010398425BD0B0F1804F62D04FF468
:103CB8008063C4F20003984266D04FF40063C4F2F4
:103CC800000398426AD04FF44063C4F2000398425C
:103CD8006ED04FF48053C4F20003984272D04FF470
:103CE800A053C4F20003984276D04FF48063C4F224
:103CF800010398427AD04FF48043C4F201039842FA
:103D08007ED04FF48843C4F20103984200F08480C7
:103D18004FF49043C4F20103984200F089804FF4B5
:103D2800C053C4F20003984200F08E804FF4E05371
:103D3800C4F20003984200F091804FF40053C4F29B
:103D48000003984200D008BD4FF480700121FFF7AE
:103D580017FB4FF480700021BDE80840FFF710BB47
:103D680001200146FFF71AFB01200021BDE80840A9
:103D7800FFF714BB01200146FFF702FB01200021D9
:103D8800BDE80840FFF7FCBA02200121FFF7F8FA66
:103D980002200021BDE80840FFF7F2BA0420012103
:103DA800FFF7EEFA04200021BDE80840FFF7E8BA63
:103DB80008200121FFF7E4FA08200021BDE80840A7
:103DC800FFF7DEBA10200121FFF7DAFA10200021F0
:103DD800BDE80840FFF7D4BA20200121FFF7D0FA48
:103DE80020200021BDE80840FFF7CABA02200121BF
:103DF800FFF7D4FA02200021BDE80840FFF7CEBA49
:103E08004FF480300121FFF7C9FA4FF480300021C8
:103E1800BDE80840FFF7C2BA4FF400300121FFF7B0
:103E2800BDFA4FF400300021BDE80840FFF7B6BAEC
:103E38004FF480200121FFF7B1FA4FF480200021D0
:103E4800BDE80840FFF7AABA40200121FFF798FA19
:103E580040200021BDE80840FFF792BA80200121E8
:103E6800FFF78EFA80200021BDE80840FFF788BAE6
:103E780070B400224FF48064C4F201020388C4F2D3
:103E88000104904218BFA0429BB214BF0022012235
:103E980008D04FF48064C4F20004A04218BFB0F107
:103EA800804F23D14FF68F754C881D4045EA040397
:103EB8004FF4A0564FF48055C4F20005C4F2000632
:103EC800B04218BFA8421FBF0D894FF6FF441C40DF
:103ED80044EA05034D680C880380C56204850AB16D
:103EE8008B7A03860123838270BC70474FF4006588
:103EF8004FF44064C4F20005C4F20004A04218BFA5
:103F0800A842D5D1CEE700BF00234FF0FF32426070
:103F18000380038143808372704700BF01858282DA
:103F2800704700BF038823F070031B041B0C194360
:103F38000180704741627047C1627047406A7047AC
:103F4800008D80B2704700BF038829B923F00203AF
:103F58001B041B0C038070479BB243F002030380D1
:103F6800704700BF038829B923F004031B041B0C06
:103F7800038070479BB243F004030380704700BF7F
:103F8800038829B923F080031B041B0C03807047A6
:103F98009BB243F080030380704700BF038823F07F
:103FA80008031B041B0C038003889BB21943018080
:103FB800704700BF038823F440731B041B0C038065
:103FC80003889BB219430180704700BF038829B951
:103FD80023F001031B041B0C038070479BB243F0C2
:103FE80001030380704700BF2DE9F001048C8D891F
:103FF800B1F802C00F8824F001042404240C0484BE
:10400800028C8488038B4CEA050C22F0020223F010
:1040180073034FF48066002512041B04C4F20106E2
:10402800C4F20105120C1FFA8CFC1B0CA84218BF25
:10403800B0424CEA0202A4B243EA070317D14FF692
:10404800F775B1F80EC0B1F812800E8A8F88154046
:1040580045EA0C0C4FF6FB7248EA06064FF6FF4598
:104068000CEA0202B6B225403A4346EA05048968DA
:1040780084800383BDE8F00141630284704700BF78
:104088002DE9F003048C8D89B1F802C00F8824F063
:1040980010042404240C0484028C8488038B22F0EA
:1040A8002002120423F4E643120C42EA05121B0410
:1040B8004FF4806600251B0CC4F20106C4F201050A
:1040C80042EA0C1243EA0723A84218BFB04292B250
:1040D800A4B29BB219D14FF67F76B1F80E90B1F821
:1040E8001080B1F804C04F8A16404FF2FF3546EAF7
:1040F80009164FF6BF722540324045EA880442EA65
:104108000C1244EA870492B2A4B2896884800383BB
:10411800BDE8F00381630284704700BF2DE9F00316
:10412800048C8D89B1F802C00F8824F480742404AB
:10413800240C0484028C8488838B22F40072120479
:10414800120C42EA052223F073034FF4806600251F
:104158001B04C4F20106C4F2010542EA0C221B0C3E
:10416800A84218BFB04292B2A4B243EA070319D1D9
:104178004FF2FF76B1F80E90B1F81080B1F804C094
:104188004F8A16404CF6FF7546EA09264FF6FF326D
:104198002540324045EA081442EA0C2244EA071452
:1041A80092B2A4B2896884808383BDE8F003C163B6
:1041B80002847047F0B4048C8D890F88B1F802C06E
:1041C80024F480542404240C0484028C8488838B73
:1041D80022F400521204120C42EA05324FF48066AF
:1041E8000025C4F20105C4F20106A84218BFB04276
:1041F80023F4E64308BF0E8A8968A4B208BF4BF6C9
:10420800FF754FEA034308BF25404FEA134308BF31
:1042180045EA861443EA072342EA0C3208BFA4B2EF
:1042280092B29BB284808383F0BC0164028470479D
:10423800002303804380838083608381C38103825A
:104248004382704730B4058C0124ADB28C404FF6E0
:10425800F77325EA04040B400484183073B1043959
:10426800C1F34E0148F6FF730C5823400B5012025D
:104278000B5892B21A430A5030BC704749084FF69F
:104288008F7344582340435043581A43425030BC1C
:10429800704700BF4163704781637047C1637047CF
:1042A80001647047038B23F070031B041B0C194334
:1042B80001837047038B23F4E0431B041B0C43EA80
:1042C80001218BB203837047838B23F070031B0497
:1042D8001B0C194381837047838B23F4E0431B0431
:1042E8001B0C43EA01218BB283837047038B23F0B5
:1042F80008031B041B0C194301837047038B23F429
:1043080000631B041B0C43EA01218BB20383704733
:10431800838B23F008031B041B0C1943818370470C
:10432800838B23F400631B041B0C43EA01218BB22B
:1043380083837047038B23F004031B041B0C19436E
:1043480001837047038B23F480631B041B0C43EA2F
:1043580001218BB203837047838B23F004031B0472
:104368001B0C194381837047838B23F480631B04E0
:104378001B0C43EA01218BB283837047038B23F024
:1043880080031B041B0C194301837047038BC3F381
:104398000E0343EA01218BB203837047838B23F01A
:1043A80080031B041B0C194381837047838BC3F361
:1043B8000E0343EA01218BB283837047038C23F0F9
:1043C80002031B041B0C194301847047038C23F060
:1043D80008031B041B0C194301847047038C23F04A
:1043E80020031B041B0C43EA01118BB203847047A2
:1043F800038C23F080031B041B0C43EA01118BB2CE
:1044080003847047038C23F400731B041B0C43EADA
:1044180001218BB203847047038C23F400631B04CF
:104428001B0C43EA01218BB203847047038C23F4ED
:1044380000531B041B0C43EA01318BB20384704701
:10444800038C10B401248C409BB223EA0403038438
:10445800038C5DF8044B8A4013439BB20384704776
:10446800038C10B404248C409BB223EA0403038415
:10447800038C5DF8044B8A4013439BB20384704756
:104488000B88F0B4002B32D0042B59D0082B4E885F
:10449800038C00F084808F880D89CC8823F48051A8
:1044A8000904090C0184828B038C22F4407223F4E2
:1044B800005312055B04120D5B0C42EA072243EA23
:1044C800063342EA05329BB243F4805392B28283A8
:1044D8000384838B23F440631B041B0C8383838B2B
:1044E8009BB243EA04239BB28383F0BC7047038CDE
:1044F8004E888D880F89CC8823F001010904090CA6
:104508000184028B038C22F0F3021204120C23F0B4
:104518000A0342EA07121B0446F0010192B21B0C7F
:104528002A430B4302830384038B23F00C031B04ED
:104538001B0C0383038B9BB223430383F0BC70479C
:10454800038C4E888D880F89CC8823F010010904CC
:10455800090C0184028B038C22F44072120523F0AB
:10456800A003120D1B0442EA07321B0C43EA061390
:1045780092B242EA05229BB243F0100392B2028340
:104588000384038B23F440631B041B0C0383038BFA
:104598009BB243EA04239BB20383F0BC70478D8827
:1045A8000F89CC8823F480710904090C0184828B5B
:1045B800038C22F0F30223F4206312041B04120C70
:1045C8001B0C42EA071243EA062392B29BB243F459
:1045D80080732A4382830384838B23F00C031B0498
:1045E8001B0C8383838B9BB2234383837DE700BFAC
:1045F80000230122828003804380C38003817047A7
:104608002DE9F0014A888B880C88002A0CBF022605
:104618000026012B14BF01270227002C54D0058C3B
:10462800B1F80880B1F806C025F010052D042D0C4E
:104638000584048B018C24F44074240521F0A00126
:10464800240D090444EA0834090CA4B241EA021210
:1046580044EA032392B29BB242F01002038302841D
:10466800018B21F440610904090C0183038B9BB27F
:1046780043EA0C239BB20383018C21F00101090456
:10468800090C0184028B038C22F0F302120423F03C
:104698000A03120C1B0442EA08121B0C43F0010324
:1046A80092B21E43174307830684038B23F00C033F
:1046B8001B041B0C0383038B9BB243EA0C0CA0F86E
:1046C80018C0BDE8F0017047048CB1F808C0CD8867
:1046D80024F001010904090C0184018B048C21F0E8
:1046E800F3010904090C24F00A0441EA0C1124041A
:1046F80042F0010289B2240C14430B43038304845F
:10470800038B23F00C031B041B0C0383038B9BB24A
:104718002B430383038C23F010031B041B0C03841B
:10472800028B038C22F44072120523F0A003120DB1
:104738001B0442EA0C321B0C43F0100392B243EA0A
:10474800061642EA072707830684038B23F440638F
:104758001B041B0C0383038B9BB243EA0525ADB2F4
:104768000583BDE8F0017047406B7047806B704768
:10477800C06B7047006C7047038B23F00C031B045D
:104788001B0C0383038B9BB219430183704700BF43
:10479800038B23F440631B041B0C0383038B9BB222
:1047A80043EA01218BB20383704700BF838B23F058
:1047B8000C031B041B0C8383838B9BB219438183DB
:1047C800704700BF838B23F440631B041B0C838357
:1047D800838B9BB243EA01218BB28383704700BF6E
:1047E800B1F802C00B888A89F0B48F88CE880D8909
:1047F8004C894CEA03033B4333432B432343134382
:104808009BB2A0F84430F0BC704700BF002303807F
:1048180043808380C380038143818381704700BFC5
:10482800B0F8443021B9C3F30E03A0F84430704700
:104838006FEA43436FEA53439BB2A0F84430704792
:10484800838829B923F004031B041B0C8380704759
:104858009BB243F004038380704700BF838829B963
:1048680023F001031B041B0C838070479BB243F0A9
:1048780001038380704700BF83899BB21AB923EA7A
:104888000101818170471943818170478182704796
:10489800038A19420CBF002001207047C94389B21E
:1048A80001827047038A828911420CBF00200120CF
:1048B80019420CBF002000F001007047C94389B2BB
:1048C800018270470A43A0F84820704783899BB249
:1048D8001AB923EA01018181704719438181704720
:1048E800838829B923F008031B041B0C83807047B5
:1048F8009BB243F008038380704700BF038923F00D
:1049080007031B041B0C0381704700BF038923F0B6
:1049180070031B041B0C1943018103899BB243F0EC
:1049280007030381704700BF602970B427D0068C45
:1049380026F001063604360C0684058B048C25F017
:10494800F3052D0424F00A042D0C240445F0010578
:10495800240C45EA031344F001049BB22243038369
:104968000284038923F070031B041B0C0B4303818F
:1049780003899BB243F00703038170BC7047048C22
:1049880024F010042404240C0484058B048C25F4DE
:10499800407524F0A0042D0524042D0D240C45F4A5
:1049A800807544F0100445EA033344EA02129BB2CE
:1049B80092B203830284D4E710B4048942EA032341
:1049C800E4B223439BB21943018103895DF8044B88
:1049D80023F077031B041B0C43F077030381704714
:1049E80010B4048942EA0323E4B223439BB2194377
:1049F800018103895DF8044B9BB243F48043038132
:104A0800704700BF038923F070031B041B0C194374
:104A180001817047838823F070031B041B0C83807B
:104A280083889BB219438180704700BF038923F0B4
:104A380007031B041B0C038103899BB219430181E3
:104A4800704700BF038923F080031B041B0C0381FC
:104A580003899BB219430181704700BF10B40489D0
:104A6800E4B221430A4342EA03239CB204815DF87D
:104A7800044B704770B40589048B068C24F4407489
:104A880026F0220624F003043604360C25F0070528
:104A9800240432432D04240C2D0C44F4807442EA7F
:104AA8000313294344F001049EB201810483068460
:104AB80070BC7047838829B923F080031B041B0C42
:104AC800838070479BB243F080038380704700BFA8
:104AD800A0F85010704700BF08B54FF000500121F2
:104AE800FEF74EFC4FF000500021BDE80840FEF7ED
:104AF80047BC00BF70B491E860004FF4E8438C688D
:104B0800CA68C4F2000346EA05010C431D6840F672
:104B1800FE762243864002FA00F025EA0602104398
:104B2800186070BC704700BF002303604360836057
:104B3800C36070474FF4E843C4F2000339B91A68F8
:104B4800012101FA00F022EA0000186070471A6893
:104B5800012101FA00F01043186070474FF4E84350
:104B6800C4F20003000939B95A68012101FA00F0BA
:104B780022EA0000586070475A68012101FA00F0E3
:104B880010435860704700BF4FF4E843C4F2000375
:104B98005A6818B922F003025A60704742F00302BB
:104BA8005A6070474FF4E843C4F20003814022B9C9
:104BB8001A6822EA0101196070471A6811431960DE
:104BC800704700BF82B04FF4E843C4F200030022EC
:104BD80001920193019B083318440190019B1960CD
:104BE80002B0704782B04FF4E843C4F200030022D9
:104BF80001920193019B143318440190019B1960A1
:104C080002B0704747F220430828C4F200030CBFE3
:104C180042EA012142EA0141C150704782B04FF493
:104C2800E843C4F20003002201920193019B2C3354
:104C380003EB90000190019B186880B202B07047A6
:104C48004FF4E843C4F2000341B91A684FF48051A5
:104C580001FA00F022EA0000186070471A684FF461
:104C6800805101FA00F01043186070474FF4E84390
:104C7800C4F20003814022B91A6822EA01011960CE
:104C880070471A6811431960704700BF4FF4E84332
:104C9800C4F2000381405B6B19420CBF0020012065
:104CA800704700BF4FF4E843C4F2000381405963E2
:104CB800704700BF4FF4E843C4F2000381401A680C
:104CC800586B084003D011420CBF002001207047E8
:104CD8004FF4E843C4F2000381405963704700BFB2
:104CE80008B54FF4A843C4F20003984218D04FF413
:104CF800B043C4F2000398421ED04FF4B843C4F244
:104D08000003984200D008BD4FF400000121FEF7CF
:104D180037FB4FF400000021BDE80840FEF730BB28
:104D28004FF400100121FEF72BFB4FF40010002177
:104D3800BDE80840FEF724BB4FF480000121FEF7D0
:104D48001FFB4FF480000021BDE80840FEF718BBA8
:104D5800F0B5044685B068460D46A688FEF71AFAEF
:104D68004DF6836302992A68C4F21B33A3FB01033F
:104D780026F03F069F0C3604360C1FFA87FC4CEAD7
:104D88000606A680238848F2A06023F001031B04CE
:104D9800C0F201001B0C8242238024D85300B1FBCF
:104DA800F3F39BB20CF1010C032B98BF0423A4F876
:104DB80020C0A38323886E89A8882989AA899BB2E1
:104DC80043F001032380238823F4816323F0020343
:104DD8001B0430431B0C03430A439BB292B223804B
:104DE800228105B0F0BDE8884BF6FF7398421DBFDD
:104DF80002EB820202EB8202B1FBF2F302EB420207
:104E08000BBFB1FBF2F39BB29BB243F48043C3F3F5
:104E18000B020AB943F001034FF4967144F6D352DA
:104E280001FB07F7C1F2620282FB07129209013205
:104E380043F400432284BCE7002310B44BF6FF710F
:104E480041F288344FF480420460C18082818380BB
:104E5800038143815DF8044B704700BF038829B97B
:104E680023F001031B041B0C038070479BB243F023
:104E780001030380704700BF038829B923F48073B6
:104E88001B041B0C038070479BB243F480730380A0
:104E9800704700BF038829B923F400731B041B0C57
:104EA800038070479BB243F400730380704700BFD0
:104EB8001AB901F0FE010182704741F00101018237
:104EC800704700BF038829B923F480631B041B0CB7
:104ED800038070479BB243F480630380704700BF30
:104EE800838923F0FE031B0401F0FE011B0C0B4316
:104EF80083817047838929B923F001031B041B0CA4
:104F0800838170479BB243F001038381704700BFE0
:104F1800038829B923F040031B041B0C0380704746
:104F28009BB243F040030380704700BF038819B960
:104F3800C3F30E03038070476FEA43436FEA53439A
:104F48009BB20380704700BF038829B123F0800318
:104F58001B041B0C038070479BB243F08003038043
:104F6800704700BF838BB1F5804F1BBF23F480438C
:104F78001B049BB21B0C08BF43F480438383704718
:104F88000388B1F5006F15BF23F400639BB21B04BF
:104F980043F4006318BF1B0C038070470388B1F506
:104FA800005F15BF23F400539BB21B0443F4005366
:104FB80018BF1B0C03807047038829B923F010031E
:104FC8001B041B0C038070479BB243F01003038043
:104FD800704700BF01827047008AC0B2704700BFA7
:104FE800038829B923F480531B041B0C03807047E2
:104FF8009BB243F480530380704700BF0388B1F528
:10500800006F15BF23F400639BB21B0443F40063D5
:1050180018BF1B0C03807047038829B923F02003AD
:105028001B041B0C038070479BB243F020030380D2
:10503800704700BF008BC0F307207047838829B9E9
:1050480023F400631B041B0C838070479BB243F45A
:1050580000638380704700BF838829B923F4805395
:105068001B041B0C838070479BB243F480538380DE
:10507800704700BF82B0002301930190019B19443F
:105088000191019B188880B202B0704783889BB257
:105098001AB923EA0101818070471943818070475A
:1050A800828A038B90B240EA034021F07F43184084
:1050B8000B1A584258417047828A038B90B240EAD3
:1050C800034020F07F40704782B000230A0F00930E
:1050D800019301900092009B21F07F4153B1019B05
:1050E80014330193019B1B6819420CBF0020012057
:1050F80002B07047019B1833090C0193F2E700BF17
:10510800C94389B2818270478388808A80B2084007
:105118009BB206D001F0E06113EA11410CBF0020F8
:1051280001207047C94389B281827047D0F8AC34F6
:1051380001221A72D0F8AC3400229A72704700BF6C
:10514800D0F8AC3401225A72D0F8AC340022DA72AA
:10515800704700BF70B50123002540220C468A71B4
:10516800CB700B7781F821300D704D708D7081F800
:1051780020500646097900F06BFB3046617900F053
:1051880067FB284670BD00BF2DE9F843DDF8208095
:105198001646054699460F4640F2D004FDF7BCFA7C
:1051A8000020FDF749FBC2F2000431462846FFF70C
:1051B800D1FF0023C6F87C90C6F880803946C5F830
:1051C800AC4428462372637204F00AFBD6F8803098
:1051D8001B6898472846BDE8F843FDF7FFBA00BFAB
:1051E80000B50B1F012B83B00DD9062902D003B0DF
:1051F8005DF804FBD0F880300C221B6802709847D9
:1052080003B05DF804FBD0F880305B6C01909847E0
:1052180001980C230370EAE70B7F0022013B70B56D
:105228000C468A7405460A2B00F2A380DFE803F0D7
:1052380018202E37546678A4819306008B7B01339F
:10524800DBB2022B88BF4A788B7395BF01230823F2
:105258000B778B7492BF00230A700223184670BD27
:105268001431627900F03CFB022323770023F5E731
:10527800497904F0F3FA012800F09D80032878D1D9
:1052880005230B22A37422770023E7E72379896893
:10529800227B00F067FB042323770023DEE70979EC
:1052A80004F0DCFA012804BF0923237703D004287B
:1052B8007DD003280BD0284604F0CCFA41F2DC4319
:1052C800C2F20003228A1B88801A984251D90B2304
:1052D80023770023184670BD4B7900EB431393F8EE
:1052E800C52282F0010283F8C52263798968227B8E
:1052F80000F00EFB062323770023AFE7497904F07B
:10530800ADFA012802BF072323770023A6D004287B
:105318004DD0022802BF05232377002327D19DE71C
:10532800002123790A4600F01DFB08232377002378
:1053380094E74B7900EB4313002193F8C52282F0E0
:10534800010283F8C52263790A4600F0E1FA0A23CC
:105358002377002382E7497904F080FA012826D0D0
:10536800022802BF0923237700233FF477AF0328DD
:10537800ADD00023184670BD097904F06FFA0128F2
:10538800064614D00328A2D0284604F063FA41F256
:10539800DC43C2F20003228A1B88801A984296D8FE
:1053A800042EE6D16378A6742370032356E7627847
:1053B8000023227052E7227D638B22F07F02D2B253
:1053C8007BB141F2DC43C2F2000341F2883119801B
:1053D8008AB905232377284604F03CFA0023208263
:1053E8003CE741F2DC43C2F20003322119802AB9BA
:1053F80007232377EFE703232377ECE709232377B2
:10540800E9E700BF70B50B7894B002220C468DF81E
:105418000F2005460C2B21D8DFE813F052005C0062
:105428006200200020002000A400C000CB00D600AD
:1054380042002000D90091F83020002A00F097811E
:10544800FF21009104AB214600F01CFC30B9D4F8D0
:10545800803004A89B6A98470623A370284604F066
:10546800F5F918B9D5F8AC34DB7A0BB114B070BDC6
:10547800D4F880301B699847D5F8AC340122DA7229
:1054880021462846FFF766FED4F880305B689847C7
:10549800E36F28465B6804F12001984714B070BD9B
:1054A800D1F880309B6B98470128D7D1E36F284605
:1054B8001B68214698470028D0D107232370CDE7E1
:1054C80004F0C4F90028C9D0284600F0CFF9022317
:1054D8002370C3E704F0B4F90028BFD12070BDE7FA
:1054E800D1F880309B689847D5F8AC3400215972C0
:1054F800D5F8AC3401229A72284600F08DF9802143
:105508006071284600F088F92071284604F098F95F
:1055180006460028A2D1D4F88030DB689847284690
:1055280004F088F9D4F88030C0B284F8210006224B
:105538009B6922709847A079217994F8202094F8E3
:10554800213001900096284600F01CF9A079617975
:1055580094F8202094F8213001900096284600F015
:1055680011F97BE78B78092B3FF678AF01A252F847
:1055780023F000BF07570008E9560008A3560008A3
:10558800915600086B5600083F5400083F56000823
:1055980013560008FF550008F1550008CB6F9B68AB
:1055A80098478DF80F009DF80F303BB908232370FA
:1055B80054E7CB6FDB6898478DF80F009DF80F1004
:1055C8002046FFF70DFE49E7FFF726FE46E7FFF7FF
:1055D800C1FDD4F880305B689847E36F28465B6864
:1055E80004F12001984739E7D1F880305B6B984780
:1055F8000A23237032E794F8392000F0A3FB00282F
:105608007FF42CAF0923A37028E791F83220002AF1
:1056180000F09780FF21009104AB214600F032FB97
:1056280000287FF41BAFD4F8803004A81B6B984780
:105638000823A37012E791F83120002A00F08C802B
:10564800FF21009104AB214600F01CFB00287FF4E9
:1056580005AFD4F8803004A8DB6A98470723A37005
:10566800FCE6E28E00F078FA00287FF4F7AED4F872
:10567800803004F134005B6A04F13E0104F1500209
:1056880098470523A370E9E6092200F065FA002887
:105698007FF4E4AE0423A370E0E6012200F044FBAB
:1056A800064600287FF4DAAE0122D4F8803084F868
:1056B80020201B6A98470323217994F8202000961C
:1056C80001962846A370334600F088F8617994F86B
:1056D8002020009601963346284600F07FF8BDE664
:1056E800122200F0DBF900287FF4B8AED4F880303D
:1056F80004F12200DB6998470223A370AEE6082272
:1057080000F0CCF9064600287FF4A8AE94F82930BA
:105718002846A37104F094F8A279617901920123D3
:1057280000963246A3702846334600F057F8A07911
:1057380021790190009632463346284600F04EF80B
:105748008CE6D1F880304CF210701B6BC0F600006C
:1057580098470823A37081E6D1F880304CF2107086
:10576800DB6AC0F6000098470723A37076E6D1F8F5
:1057780080304CF210709B6AC0F6000098470623F0
:10578800A3706BE62DE9F04100EB410500EB4114F5
:10579800B5F88C649DF818C0BDF81CE084F8AC22FC
:1057A800254606F07F080027C6F3C01684F8AD82A8
:1057B80084F8AE6284F8AF3284F8B1C2A4F8B2E2D9
:1057C80004F52A7485F8C47285F8C5720BB90123EB
:1057D800237203F09DFE0020BDE8F08170B54C01F6
:1057E800BDF8145012B1061986F8AC22021902F558
:1057F8002A725689AE4200D05DB9044404F52A7471
:10580800E2799A4201D003B1E37103F081FE0020EE
:1058180070BD5581F1E700BF30B402460023B2F9EC
:105828008C44002CDDB202F1020205DA0133082BA8
:10583800F5D1FF2030BC704700EB43036FEA4141CC
:105848006FEA51412846A3F88C1430BC704700BF5A
:10585800072998BF00EB41014FF000009EBFB1F847
:105868008C34C3F30E03A1F88C3470470023A0F8DE
:105878009034A0F89234A0F89434A0F89634A0F8A4
:105888009834A0F89A341846704700BFF8B50C460B
:10589800497916461D4603F0E1FFE17801290DD04C
:1058A800022909D1012818D0032812D0042803D1CD
:1058B8000123E3700320F8BD0120F8BD2778A66016
:1058C80009220223A5812177084667702270E370B8
:1058D800F8BD01230846E370F8BDE0700020F8BD6C
:1058E800F8B502F10D0500EB451400EB42134FF03B
:1058F800000E0326082583F8AEE2C4F8181184F8D0
:1059080014611146C3F8BC5203F0B8FFC0B2F8BD29
:10591800F8B503F10D0500EB431400EB45164FF005
:10592800000E84F8AEE2C6F81811C4F8BC2262B9B9
:10593800012184F8C51200EB4515022285F81421CF
:10594800194603F09BFF0020F8BD00EB431292F8C4
:10595800C522002AEFD186F81421194603F08EFFDC
:105968000020F8BDF8B503F10D0500EB451500EB77
:1059780043140127022684F8AE72C5F8181185F879
:1059880014611946C4F8BC2203F078FF0020F8BD62
:10599800F8B500EB431603F10D04354600EB44144B
:1059A80096F8C5624FF0000E85F8AEE2C4F81811FB
:1059B800C5F8BC223EB1022284F81421194603F02E
:1059C8005DFF0020F8BD84F81461194603F056FF06
:1059D8000020F8BDF8B500EB431603F10D04354679
:1059E80000EB441496F8C462012785F8AE72C4F837
:1059F8001811C5F8BC223EB1022284F814211946B8
:105A080003F03CFF0020F8BD84F81461194603F048
:105A180035FF0020F8BD00BFF8B503F10D0500EB18
:105A2800431600EB4515012786F8AE72C5F8181124
:105A3800C6F8BC2296F8C422344602B1022285F880
:105A4800142194F8C42282F00102194684F8C42271
:105A580003F014FF0020F8BDF8B503F10D0500EBC5
:105A6800431600EB45154FF0000E86F8AEE2C5F878
:105A78001811C6F8BC2296F8C422344602B1022294
:105A880085F8142194F8C42282F00102194684F89A
:105A9800C42203F0F3FE0020F8BD00BFF8B5164697
:105AA80000234FF480724FF0800E0627CA820B83C2
:105AB8004E8381F814E04F75334600F588720C4622
:105AC8000546FFF7E3FE00B1F8BD95F8103184F8FC
